{
  "_format": "hh-sol-artifact-1",
  "contractName": "NFT_MarketPlace",
  "sourceName": "contracts/NFT_MarketPlace.sol",
  "abi": [
    {
      "inputs": [],
      "stateMutability": "nonpayable",
      "type": "constructor"
    },
    {
      "anonymous": false,
      "inputs": [
        {
          "indexed": true,
          "internalType": "address",
          "name": "account",
          "type": "address"
        },
        {
          "indexed": true,
          "internalType": "address",
          "name": "operator",
          "type": "address"
        },
        {
          "indexed": false,
          "internalType": "bool",
          "name": "approved",
          "type": "bool"
        }
      ],
      "name": "ApprovalForAll",
      "type": "event"
    },
    {
      "anonymous": false,
      "inputs": [
        {
          "indexed": true,
          "internalType": "uint256",
          "name": "itemId",
          "type": "uint256"
        },
        {
          "indexed": true,
          "internalType": "uint256",
          "name": "tokenId",
          "type": "uint256"
        },
        {
          "indexed": false,
          "internalType": "address",
          "name": "seller",
          "type": "address"
        },
        {
          "indexed": false,
          "internalType": "address",
          "name": "owner",
          "type": "address"
        },
        {
          "indexed": false,
          "internalType": "uint256",
          "name": "price",
          "type": "uint256"
        },
        {
          "indexed": false,
          "internalType": "bool",
          "name": "sold",
          "type": "bool"
        }
      ],
      "name": "MarketItemCreated",
      "type": "event"
    },
    {
      "anonymous": false,
      "inputs": [
        {
          "indexed": true,
          "internalType": "address",
          "name": "previousOwner",
          "type": "address"
        },
        {
          "indexed": true,
          "internalType": "address",
          "name": "newOwner",
          "type": "address"
        }
      ],
      "name": "OwnershipTransferred",
      "type": "event"
    },
    {
      "anonymous": false,
      "inputs": [
        {
          "indexed": true,
          "internalType": "address",
          "name": "sender",
          "type": "address"
        },
        {
          "indexed": true,
          "internalType": "address",
          "name": "receiver",
          "type": "address"
        },
        {
          "indexed": false,
          "internalType": "uint256",
          "name": "value",
          "type": "uint256"
        }
      ],
      "name": "Transfer",
      "type": "event"
    },
    {
      "anonymous": false,
      "inputs": [
        {
          "indexed": true,
          "internalType": "address",
          "name": "operator",
          "type": "address"
        },
        {
          "indexed": true,
          "internalType": "address",
          "name": "from",
          "type": "address"
        },
        {
          "indexed": true,
          "internalType": "address",
          "name": "to",
          "type": "address"
        },
        {
          "indexed": false,
          "internalType": "uint256[]",
          "name": "ids",
          "type": "uint256[]"
        },
        {
          "indexed": false,
          "internalType": "uint256[]",
          "name": "values",
          "type": "uint256[]"
        }
      ],
      "name": "TransferBatch",
      "type": "event"
    },
    {
      "anonymous": false,
      "inputs": [
        {
          "indexed": true,
          "internalType": "address",
          "name": "operator",
          "type": "address"
        },
        {
          "indexed": true,
          "internalType": "address",
          "name": "from",
          "type": "address"
        },
        {
          "indexed": true,
          "internalType": "address",
          "name": "to",
          "type": "address"
        },
        {
          "indexed": false,
          "internalType": "uint256",
          "name": "id",
          "type": "uint256"
        },
        {
          "indexed": false,
          "internalType": "uint256",
          "name": "value",
          "type": "uint256"
        }
      ],
      "name": "TransferSingle",
      "type": "event"
    },
    {
      "anonymous": false,
      "inputs": [
        {
          "indexed": false,
          "internalType": "string",
          "name": "value",
          "type": "string"
        },
        {
          "indexed": true,
          "internalType": "uint256",
          "name": "id",
          "type": "uint256"
        }
      ],
      "name": "URI",
      "type": "event"
    },
    {
      "inputs": [
        {
          "internalType": "address",
          "name": "",
          "type": "address"
        }
      ],
      "name": "_balances",
      "outputs": [
        {
          "internalType": "uint256",
          "name": "",
          "type": "uint256"
        }
      ],
      "stateMutability": "view",
      "type": "function"
    },
    {
      "inputs": [],
      "name": "_itemIds",
      "outputs": [
        {
          "internalType": "uint256",
          "name": "_value",
          "type": "uint256"
        }
      ],
      "stateMutability": "view",
      "type": "function"
    },
    {
      "inputs": [],
      "name": "_itemsSold",
      "outputs": [
        {
          "internalType": "uint256",
          "name": "_value",
          "type": "uint256"
        }
      ],
      "stateMutability": "view",
      "type": "function"
    },
    {
      "inputs": [],
      "name": "_tokenIds",
      "outputs": [
        {
          "internalType": "uint256",
          "name": "_value",
          "type": "uint256"
        }
      ],
      "stateMutability": "view",
      "type": "function"
    },
    {
      "inputs": [
        {
          "internalType": "uint256",
          "name": "",
          "type": "uint256"
        }
      ],
      "name": "_tokenURIs",
      "outputs": [
        {
          "internalType": "string",
          "name": "",
          "type": "string"
        }
      ],
      "stateMutability": "view",
      "type": "function"
    },
    {
      "inputs": [
        {
          "internalType": "address",
          "name": "_to",
          "type": "address"
        },
        {
          "internalType": "uint256",
          "name": "_amount",
          "type": "uint256"
        }
      ],
      "name": "_transfer",
      "outputs": [
        {
          "internalType": "bool",
          "name": "success",
          "type": "bool"
        }
      ],
      "stateMutability": "payable",
      "type": "function"
    },
    {
      "inputs": [
        {
          "internalType": "address",
          "name": "account",
          "type": "address"
        },
        {
          "internalType": "uint256",
          "name": "id",
          "type": "uint256"
        }
      ],
      "name": "balanceOf",
      "outputs": [
        {
          "internalType": "uint256",
          "name": "",
          "type": "uint256"
        }
      ],
      "stateMutability": "view",
      "type": "function"
    },
    {
      "inputs": [
        {
          "internalType": "address",
          "name": "account",
          "type": "address"
        }
      ],
      "name": "balanceOfAddress",
      "outputs": [
        {
          "internalType": "uint256",
          "name": "",
          "type": "uint256"
        }
      ],
      "stateMutability": "view",
      "type": "function"
    },
    {
      "inputs": [
        {
          "internalType": "address[]",
          "name": "accounts",
          "type": "address[]"
        },
        {
          "internalType": "uint256[]",
          "name": "ids",
          "type": "uint256[]"
        }
      ],
      "name": "balanceOfBatch",
      "outputs": [
        {
          "internalType": "uint256[]",
          "name": "",
          "type": "uint256[]"
        }
      ],
      "stateMutability": "view",
      "type": "function"
    },
    {
      "inputs": [
        {
          "internalType": "uint256",
          "name": "itemId",
          "type": "uint256"
        },
        {
          "internalType": "uint256",
          "name": "amount",
          "type": "uint256"
        }
      ],
      "name": "createMarketSale",
      "outputs": [],
      "stateMutability": "payable",
      "type": "function"
    },
    {
      "inputs": [],
      "name": "fetchItemsListed",
      "outputs": [
        {
          "components": [
            {
              "internalType": "uint256",
              "name": "itemId",
              "type": "uint256"
            },
            {
              "internalType": "uint256",
              "name": "tokenId",
              "type": "uint256"
            },
            {
              "internalType": "address payable",
              "name": "seller",
              "type": "address"
            },
            {
              "internalType": "address payable",
              "name": "owner",
              "type": "address"
            },
            {
              "internalType": "uint256",
              "name": "price",
              "type": "uint256"
            },
            {
              "internalType": "bool",
              "name": "sold",
              "type": "bool"
            }
          ],
          "internalType": "struct NFT_MarketPlace.MarketItem[]",
          "name": "",
          "type": "tuple[]"
        }
      ],
      "stateMutability": "view",
      "type": "function"
    },
    {
      "inputs": [],
      "name": "fetchMarketItems",
      "outputs": [
        {
          "components": [
            {
              "internalType": "uint256",
              "name": "itemId",
              "type": "uint256"
            },
            {
              "internalType": "uint256",
              "name": "tokenId",
              "type": "uint256"
            },
            {
              "internalType": "address payable",
              "name": "seller",
              "type": "address"
            },
            {
              "internalType": "address payable",
              "name": "owner",
              "type": "address"
            },
            {
              "internalType": "uint256",
              "name": "price",
              "type": "uint256"
            },
            {
              "internalType": "bool",
              "name": "sold",
              "type": "bool"
            }
          ],
          "internalType": "struct NFT_MarketPlace.MarketItem[]",
          "name": "",
          "type": "tuple[]"
        }
      ],
      "stateMutability": "view",
      "type": "function"
    },
    {
      "inputs": [],
      "name": "fetchMyNFTs",
      "outputs": [
        {
          "components": [
            {
              "internalType": "uint256",
              "name": "itemId",
              "type": "uint256"
            },
            {
              "internalType": "uint256",
              "name": "tokenId",
              "type": "uint256"
            },
            {
              "internalType": "address payable",
              "name": "seller",
              "type": "address"
            },
            {
              "internalType": "address payable",
              "name": "owner",
              "type": "address"
            },
            {
              "internalType": "uint256",
              "name": "price",
              "type": "uint256"
            },
            {
              "internalType": "bool",
              "name": "sold",
              "type": "bool"
            }
          ],
          "internalType": "struct NFT_MarketPlace.MarketItem[]",
          "name": "",
          "type": "tuple[]"
        }
      ],
      "stateMutability": "view",
      "type": "function"
    },
    {
      "inputs": [],
      "name": "getListingPrice",
      "outputs": [
        {
          "internalType": "uint256",
          "name": "",
          "type": "uint256"
        }
      ],
      "stateMutability": "view",
      "type": "function"
    },
    {
      "inputs": [
        {
          "internalType": "uint256",
          "name": "",
          "type": "uint256"
        }
      ],
      "name": "idToMarketItem",
      "outputs": [
        {
          "internalType": "uint256",
          "name": "itemId",
          "type": "uint256"
        },
        {
          "internalType": "uint256",
          "name": "tokenId",
          "type": "uint256"
        },
        {
          "internalType": "address payable",
          "name": "seller",
          "type": "address"
        },
        {
          "internalType": "address payable",
          "name": "owner",
          "type": "address"
        },
        {
          "internalType": "uint256",
          "name": "price",
          "type": "uint256"
        },
        {
          "internalType": "bool",
          "name": "sold",
          "type": "bool"
        }
      ],
      "stateMutability": "view",
      "type": "function"
    },
    {
      "inputs": [
        {
          "internalType": "address",
          "name": "account",
          "type": "address"
        },
        {
          "internalType": "address",
          "name": "operator",
          "type": "address"
        }
      ],
      "name": "isApprovedForAll",
      "outputs": [
        {
          "internalType": "bool",
          "name": "",
          "type": "bool"
        }
      ],
      "stateMutability": "view",
      "type": "function"
    },
    {
      "inputs": [
        {
          "internalType": "address",
          "name": "to",
          "type": "address"
        },
        {
          "internalType": "uint256[]",
          "name": "ids",
          "type": "uint256[]"
        },
        {
          "internalType": "uint256[]",
          "name": "amounts",
          "type": "uint256[]"
        },
        {
          "internalType": "bytes",
          "name": "data",
          "type": "bytes"
        }
      ],
      "name": "mintBatch",
      "outputs": [],
      "stateMutability": "nonpayable",
      "type": "function"
    },
    {
      "inputs": [
        {
          "internalType": "string",
          "name": "tokenURI",
          "type": "string"
        },
        {
          "internalType": "uint256",
          "name": "amount",
          "type": "uint256"
        },
        {
          "internalType": "uint256",
          "name": "price",
          "type": "uint256"
        }
      ],
      "name": "mintToken",
      "outputs": [
        {
          "internalType": "uint256",
          "name": "",
          "type": "uint256"
        }
      ],
      "stateMutability": "nonpayable",
      "type": "function"
    },
    {
      "inputs": [
        {
          "internalType": "address",
          "name": "_operator",
          "type": "address"
        },
        {
          "internalType": "address",
          "name": "_from",
          "type": "address"
        },
        {
          "internalType": "uint256",
          "name": "_id",
          "type": "uint256"
        },
        {
          "internalType": "uint256",
          "name": "_value",
          "type": "uint256"
        },
        {
          "internalType": "bytes",
          "name": "_data",
          "type": "bytes"
        }
      ],
      "name": "onERC1155Received",
      "outputs": [
        {
          "internalType": "bytes4",
          "name": "",
          "type": "bytes4"
        }
      ],
      "stateMutability": "nonpayable",
      "type": "function"
    },
    {
      "inputs": [],
      "name": "owner",
      "outputs": [
        {
          "internalType": "address",
          "name": "",
          "type": "address"
        }
      ],
      "stateMutability": "view",
      "type": "function"
    },
    {
      "inputs": [],
      "name": "renounceOwnership",
      "outputs": [],
      "stateMutability": "nonpayable",
      "type": "function"
    },
    {
      "inputs": [
        {
          "internalType": "address",
          "name": "from",
          "type": "address"
        },
        {
          "internalType": "address",
          "name": "to",
          "type": "address"
        },
        {
          "internalType": "uint256[]",
          "name": "ids",
          "type": "uint256[]"
        },
        {
          "internalType": "uint256[]",
          "name": "amounts",
          "type": "uint256[]"
        },
        {
          "internalType": "bytes",
          "name": "data",
          "type": "bytes"
        }
      ],
      "name": "safeBatchTransferFrom",
      "outputs": [],
      "stateMutability": "nonpayable",
      "type": "function"
    },
    {
      "inputs": [
        {
          "internalType": "address",
          "name": "from",
          "type": "address"
        },
        {
          "internalType": "address",
          "name": "to",
          "type": "address"
        },
        {
          "internalType": "uint256",
          "name": "id",
          "type": "uint256"
        },
        {
          "internalType": "uint256",
          "name": "amount",
          "type": "uint256"
        },
        {
          "internalType": "bytes",
          "name": "data",
          "type": "bytes"
        }
      ],
      "name": "safeTransferFrom",
      "outputs": [],
      "stateMutability": "nonpayable",
      "type": "function"
    },
    {
      "inputs": [
        {
          "internalType": "address",
          "name": "operator",
          "type": "address"
        },
        {
          "internalType": "bool",
          "name": "approved",
          "type": "bool"
        }
      ],
      "name": "setApprovalForAll",
      "outputs": [],
      "stateMutability": "nonpayable",
      "type": "function"
    },
    {
      "inputs": [
        {
          "internalType": "string",
          "name": "newuri",
          "type": "string"
        }
      ],
      "name": "setURI",
      "outputs": [],
      "stateMutability": "nonpayable",
      "type": "function"
    },
    {
      "inputs": [
        {
          "internalType": "bytes4",
          "name": "interfaceId",
          "type": "bytes4"
        }
      ],
      "name": "supportsInterface",
      "outputs": [
        {
          "internalType": "bool",
          "name": "",
          "type": "bool"
        }
      ],
      "stateMutability": "view",
      "type": "function"
    },
    {
      "inputs": [
        {
          "internalType": "address",
          "name": "newOwner",
          "type": "address"
        }
      ],
      "name": "transferOwnership",
      "outputs": [],
      "stateMutability": "nonpayable",
      "type": "function"
    },
    {
      "inputs": [
        {
          "internalType": "uint256",
          "name": "tokenId",
          "type": "uint256"
        }
      ],
      "name": "uri",
      "outputs": [
        {
          "internalType": "string",
          "name": "",
          "type": "string"
        }
      ],
      "stateMutability": "view",
      "type": "function"
    }
  ],
  "bytecode": "0x608060405260405180602001604052806000815250600590805190602001906200002b9291906200018a565b5060196009556103e8600a556658d15e17628000600e553480156200004f57600080fd5b50604051806020016040528060008152506200007181620000a060201b60201c565b506200009262000086620000bc60201b60201c565b620000c460201b60201c565b60016004819055506200029f565b8060029080519060200190620000b89291906200018a565b5050565b600033905090565b6000600360009054906101000a900473ffffffffffffffffffffffffffffffffffffffff16905081600360006101000a81548173ffffffffffffffffffffffffffffffffffffffff021916908373ffffffffffffffffffffffffffffffffffffffff1602179055508173ffffffffffffffffffffffffffffffffffffffff168173ffffffffffffffffffffffffffffffffffffffff167f8be0079c531659141344cd1fd0a4f28419497f9722a3daafe3b4186f6b6457e060405160405180910390a35050565b828054620001989062000269565b90600052602060002090601f016020900481019282620001bc576000855562000208565b82601f10620001d757805160ff191683800117855562000208565b8280016001018555821562000208579182015b8281111562000207578251825591602001919060010190620001ea565b5b5090506200021791906200021b565b5090565b5b80821115620002365760008160009055506001016200021c565b5090565b7f4e487b7100000000000000000000000000000000000000000000000000000000600052602260045260246000fd5b600060028204905060018216806200028257607f821691505b602082108114156200029957620002986200023a565b5b50919050565b614f9380620002af6000396000f3fe6080604052600436106101b65760003560e01c80636ebcf607116100ec578063aa46a4001161008a578063e985e9c511610064578063e985e9c514610644578063f23a6e6114610681578063f242432a146106be578063f2fde38b146106e7576101b6565b8063aa46a4001461059a578063e3765620146105c5578063e61a70c014610602576101b6565b806387506a0d116100c657806387506a0d146104ff5780638da5cb5b1461052a578063a1c11ca814610555578063a22cb46514610571576101b6565b80636ebcf6071461046e578063715018a6146104ab57806386212b8f146104c2576101b6565b80631f7fdffa1161015957806334a7f1931161013357806334a7f193146103ab57806345f8fa80146103d65780634847a79c146104015780634e1273f414610431576101b6565b80631f7fdffa1461032e578063202e3740146103575780632eb2c2d614610382576101b6565b80630bb78ec1116101955780630bb78ec11461025e5780630e89341c1461029b5780630f08efe0146102d857806312e8558514610303576101b6565b8062fdd58e146101bb57806301ffc9a7146101f857806302fe530514610235575b600080fd5b3480156101c757600080fd5b506101e260048036038101906101dd919061339f565b610710565b6040516101ef91906133ee565b60405180910390f35b34801561020457600080fd5b5061021f600480360381019061021a9190613461565b6107d9565b60405161022c91906134a9565b60405180910390f35b34801561024157600080fd5b5061025c6004803603810190610257919061360a565b6108bb565b005b34801561026a57600080fd5b5061028560048036038101906102809190613653565b610943565b6040516102929190613708565b60405180910390f35b3480156102a757600080fd5b506102c260048036038101906102bd9190613653565b6109e3565b6040516102cf9190613708565b60405180910390f35b3480156102e457600080fd5b506102ed610ac8565b6040516102fa9190613893565b60405180910390f35b34801561030f57600080fd5b50610318610d3b565b60405161032591906133ee565b60405180910390f35b34801561033a57600080fd5b5061035560048036038101906103509190613a1e565b610d45565b005b34801561036357600080fd5b5061036c610dd3565b6040516103799190613893565b60405180910390f35b34801561038e57600080fd5b506103a960048036038101906103a49190613ad9565b6110cb565b005b3480156103b757600080fd5b506103c061116c565b6040516103cd91906133ee565b60405180910390f35b3480156103e257600080fd5b506103eb611178565b6040516103f89190613893565b60405180910390f35b61041b6004803603810190610416919061339f565b611470565b60405161042891906134a9565b60405180910390f35b34801561043d57600080fd5b5061045860048036038101906104539190613c6b565b61164d565b6040516104659190613d92565b60405180910390f35b34801561047a57600080fd5b5061049560048036038101906104909190613db4565b611766565b6040516104a291906133ee565b60405180910390f35b3480156104b757600080fd5b506104c061177e565b005b3480156104ce57600080fd5b506104e960048036038101906104e49190613db4565b611806565b6040516104f691906133ee565b60405180910390f35b34801561050b57600080fd5b5061051461184f565b60405161052191906133ee565b60405180910390f35b34801561053657600080fd5b5061053f61185b565b60405161054c9190613df0565b60405180910390f35b61056f600480360381019061056a9190613e0b565b611885565b005b34801561057d57600080fd5b5061059860048036038101906105939190613e77565b611a44565b005b3480156105a657600080fd5b506105af611a5a565b6040516105bc91906133ee565b60405180910390f35b3480156105d157600080fd5b506105ec60048036038101906105e79190613eb7565b611a66565b6040516105f991906133ee565b60405180910390f35b34801561060e57600080fd5b5061062960048036038101906106249190613653565b611abb565b60405161063b96959493929190613f35565b60405180910390f35b34801561065057600080fd5b5061066b60048036038101906106669190613f96565b611b44565b60405161067891906134a9565b60405180910390f35b34801561068d57600080fd5b506106a860048036038101906106a39190614031565b611bd8565b6040516106b591906140da565b60405180910390f35b3480156106ca57600080fd5b506106e560048036038101906106e091906140f5565b611c07565b005b3480156106f357600080fd5b5061070e60048036038101906107099190613db4565b611ca8565b005b60008073ffffffffffffffffffffffffffffffffffffffff168373ffffffffffffffffffffffffffffffffffffffff161415610781576040517f08c379a0000000000000000000000000000000000000000000000000000000008152600401610778906141fe565b60405180910390fd5b60008083815260200190815260200160002060008473ffffffffffffffffffffffffffffffffffffffff1673ffffffffffffffffffffffffffffffffffffffff16815260200190815260200160002054905092915050565b60007fd9b67a26000000000000000000000000000000000000000000000000000000007bffffffffffffffffffffffffffffffffffffffffffffffffffffffff1916827bffffffffffffffffffffffffffffffffffffffffffffffffffffffff191614806108a457507f0e89341c000000000000000000000000000000000000000000000000000000007bffffffffffffffffffffffffffffffffffffffffffffffffffffffff1916827bffffffffffffffffffffffffffffffffffffffffffffffffffffffff1916145b806108b457506108b382611da0565b5b9050919050565b6108c3611e0a565b73ffffffffffffffffffffffffffffffffffffffff166108e161185b565b73ffffffffffffffffffffffffffffffffffffffff1614610937576040517f08c379a000000000000000000000000000000000000000000000000000000000815260040161092e9061426a565b60405180910390fd5b61094081611e12565b50565b60066020528060005260406000206000915090508054610962906142b9565b80601f016020809104026020016040519081016040528092919081815260200182805461098e906142b9565b80156109db5780601f106109b0576101008083540402835291602001916109db565b820191906000526020600020905b8154815290600101906020018083116109be57829003601f168201915b505050505081565b60606000600660008481526020019081526020016000208054610a05906142b9565b80601f0160208091040260200160405190810160405280929190818152602001828054610a31906142b9565b8015610a7e5780601f10610a5357610100808354040283529160200191610a7e565b820191906000526020600020905b815481529060010190602001808311610a6157829003601f168201915b505050505090506000815111610a9c57610a9783611e2c565b610ac0565b600581604051602001610ab09291906143bb565b6040516020818303038152906040525b915050919050565b60606000610ad6600d611ec0565b90506000610ae4600c611ec0565b610aee600d611ec0565b610af8919061440e565b90506000808267ffffffffffffffff811115610b1757610b166134df565b5b604051908082528060200260200182016040528015610b5057816020015b610b3d6131f0565b815260200190600190039081610b355790505b50905060005b84811015610d30573073ffffffffffffffffffffffffffffffffffffffff1660076000600184610b869190614442565b815260200190815260200160002060030160009054906101000a900473ffffffffffffffffffffffffffffffffffffffff1673ffffffffffffffffffffffffffffffffffffffff161415610d1d576000600182610be39190614442565b90506000600760008381526020019081526020016000209050806040518060c001604052908160008201548152602001600182015481526020016002820160009054906101000a900473ffffffffffffffffffffffffffffffffffffffff1673ffffffffffffffffffffffffffffffffffffffff1673ffffffffffffffffffffffffffffffffffffffff1681526020016003820160009054906101000a900473ffffffffffffffffffffffffffffffffffffffff1673ffffffffffffffffffffffffffffffffffffffff1673ffffffffffffffffffffffffffffffffffffffff168152602001600482015481526020016005820160009054906101000a900460ff161515151581525050848681518110610d0057610cff614498565b5b6020026020010181905250600185610d189190614442565b945050505b8080610d28906144c7565b915050610b56565b508094505050505090565b6000600e54905090565b610d4d611e0a565b73ffffffffffffffffffffffffffffffffffffffff16610d6b61185b565b73ffffffffffffffffffffffffffffffffffffffff1614610dc1576040517f08c379a0000000000000000000000000000000000000000000000000000000008152600401610db89061426a565b60405180910390fd5b610dcd84848484611ece565b50505050565b60606000610de1600d611ec0565b905060008060005b83811015610e8a573373ffffffffffffffffffffffffffffffffffffffff1660076000600184610e199190614442565b815260200190815260200160002060030160009054906101000a900473ffffffffffffffffffffffffffffffffffffffff1673ffffffffffffffffffffffffffffffffffffffff161415610e7757600183610e749190614442565b92505b8080610e82906144c7565b915050610de9565b5060008267ffffffffffffffff811115610ea757610ea66134df565b5b604051908082528060200260200182016040528015610ee057816020015b610ecd6131f0565b815260200190600190039081610ec55790505b50905060005b848110156110c0573373ffffffffffffffffffffffffffffffffffffffff1660076000600184610f169190614442565b815260200190815260200160002060030160009054906101000a900473ffffffffffffffffffffffffffffffffffffffff1673ffffffffffffffffffffffffffffffffffffffff1614156110ad576000600182610f739190614442565b90506000600760008381526020019081526020016000209050806040518060c001604052908160008201548152602001600182015481526020016002820160009054906101000a900473ffffffffffffffffffffffffffffffffffffffff1673ffffffffffffffffffffffffffffffffffffffff1673ffffffffffffffffffffffffffffffffffffffff1681526020016003820160009054906101000a900473ffffffffffffffffffffffffffffffffffffffff1673ffffffffffffffffffffffffffffffffffffffff1673ffffffffffffffffffffffffffffffffffffffff168152602001600482015481526020016005820160009054906101000a900460ff1615151515815250508486815181106110905761108f614498565b5b60200260200101819052506001856110a89190614442565b945050505b80806110b8906144c7565b915050610ee6565b508094505050505090565b6110d3611e0a565b73ffffffffffffffffffffffffffffffffffffffff168573ffffffffffffffffffffffffffffffffffffffff161480611119575061111885611113611e0a565b611b44565b5b611158576040517f08c379a000000000000000000000000000000000000000000000000000000000815260040161114f90614582565b60405180910390fd5b61116585858585856120ec565b5050505050565b600b8060000154905081565b60606000611186600d611ec0565b905060008060005b8381101561122f573373ffffffffffffffffffffffffffffffffffffffff16600760006001846111be9190614442565b815260200190815260200160002060020160009054906101000a900473ffffffffffffffffffffffffffffffffffffffff1673ffffffffffffffffffffffffffffffffffffffff16141561121c576001836112199190614442565b92505b8080611227906144c7565b91505061118e565b5060008267ffffffffffffffff81111561124c5761124b6134df565b5b60405190808252806020026020018201604052801561128557816020015b6112726131f0565b81526020019060019003908161126a5790505b50905060005b84811015611465573373ffffffffffffffffffffffffffffffffffffffff16600760006001846112bb9190614442565b815260200190815260200160002060020160009054906101000a900473ffffffffffffffffffffffffffffffffffffffff1673ffffffffffffffffffffffffffffffffffffffff1614156114525760006001826113189190614442565b90506000600760008381526020019081526020016000209050806040518060c001604052908160008201548152602001600182015481526020016002820160009054906101000a900473ffffffffffffffffffffffffffffffffffffffff1673ffffffffffffffffffffffffffffffffffffffff1673ffffffffffffffffffffffffffffffffffffffff1681526020016003820160009054906101000a900473ffffffffffffffffffffffffffffffffffffffff1673ffffffffffffffffffffffffffffffffffffffff1673ffffffffffffffffffffffffffffffffffffffff168152602001600482015481526020016005820160009054906101000a900460ff16151515158152505084868151811061143557611434614498565b5b602002602001018190525060018561144d9190614442565b945050505b808061145d906144c7565b91505061128b565b508094505050505090565b60006114b06040518060400160405280601181526020017f7472616e73666572207374617274696e67000000000000000000000000000000815250612400565b600860003373ffffffffffffffffffffffffffffffffffffffff1673ffffffffffffffffffffffffffffffffffffffff16815260200190815260200160002054821115611532576040517f08c379a0000000000000000000000000000000000000000000000000000000008152600401611529906145ee565b60405180910390fd5b81600860003373ffffffffffffffffffffffffffffffffffffffff1673ffffffffffffffffffffffffffffffffffffffff1681526020019081526020016000206000828254611581919061440e565b9250508190555081600860008573ffffffffffffffffffffffffffffffffffffffff1673ffffffffffffffffffffffffffffffffffffffff16815260200190815260200160002060008282546115d79190614442565b925050819055508273ffffffffffffffffffffffffffffffffffffffff163373ffffffffffffffffffffffffffffffffffffffff167fddf252ad1be2c89b69c2b068fc378daa952ba7f163c4a11628f55a4df523b3ef8460405161163b91906133ee565b60405180910390a36001905092915050565b60608151835114611693576040517f08c379a000000000000000000000000000000000000000000000000000000000815260040161168a90614680565b60405180910390fd5b6000835167ffffffffffffffff8111156116b0576116af6134df565b5b6040519080825280602002602001820160405280156116de5781602001602082028036833780820191505090505b50905060005b845181101561175b5761172b85828151811061170357611702614498565b5b602002602001015185838151811061171e5761171d614498565b5b6020026020010151610710565b82828151811061173e5761173d614498565b5b60200260200101818152505080611754906144c7565b90506116e4565b508091505092915050565b60086020528060005260406000206000915090505481565b611786611e0a565b73ffffffffffffffffffffffffffffffffffffffff166117a461185b565b73ffffffffffffffffffffffffffffffffffffffff16146117fa576040517f08c379a00000000000000000000000000000000000000000000000000000000081526004016117f19061426a565b60405180910390fd5b6118046000612499565b565b6000600860008373ffffffffffffffffffffffffffffffffffffffff1673ffffffffffffffffffffffffffffffffffffffff168152602001908152602001600020549050919050565b600c8060000154905081565b6000600360009054906101000a900473ffffffffffffffffffffffffffffffffffffffff16905090565b600260045414156118cb576040517f08c379a00000000000000000000000000000000000000000000000000000000081526004016118c2906146ec565b60405180910390fd5b600260048190555060006007600084815260200190815260200160002060040154905060006007600085815260200190815260200160002060020160009054906101000a900473ffffffffffffffffffffffffffffffffffffffff1690506000600760008681526020019081526020016000206001015490508173ffffffffffffffffffffffffffffffffffffffff166108fc849081150290604051600060405180830381858888f1935050505015801561198a573d6000803e3d6000fd5b50336007600087815260200190815260200160002060030160006101000a81548173ffffffffffffffffffffffffffffffffffffffff021916908373ffffffffffffffffffffffffffffffffffffffff16021790555060016007600087815260200190815260200160002060050160006101000a81548160ff021916908315150217905550611a19600c61255f565b611a353033838760405180602001604052806000815250612575565b50505060016004819055505050565b611a56611a4f611e0a565b83836127f7565b5050565b600d8060000154905081565b6000611a72600d61255f565b6000611a7e600d611ec0565b9050611a9b33828660405180602001604052806000815250612964565b611aa58186612afa565b611ab0818486612b26565b809150509392505050565b60076020528060005260406000206000915090508060000154908060010154908060020160009054906101000a900473ffffffffffffffffffffffffffffffffffffffff16908060030160009054906101000a900473ffffffffffffffffffffffffffffffffffffffff16908060040154908060050160009054906101000a900460ff16905086565b6000600160008473ffffffffffffffffffffffffffffffffffffffff1673ffffffffffffffffffffffffffffffffffffffff16815260200190815260200160002060008373ffffffffffffffffffffffffffffffffffffffff1673ffffffffffffffffffffffffffffffffffffffff16815260200190815260200160002060009054906101000a900460ff16905092915050565b60007ff23a6e612e1ff4830e658fe43f4e3cb4a5f8170bd5d9e69fb5d7a7fa9e4fdf9790509695505050505050565b611c0f611e0a565b73ffffffffffffffffffffffffffffffffffffffff168573ffffffffffffffffffffffffffffffffffffffff161480611c555750611c5485611c4f611e0a565b611b44565b5b611c94576040517f08c379a0000000000000000000000000000000000000000000000000000000008152600401611c8b9061477e565b60405180910390fd5b611ca18585858585612575565b5050505050565b611cb0611e0a565b73ffffffffffffffffffffffffffffffffffffffff16611cce61185b565b73ffffffffffffffffffffffffffffffffffffffff1614611d24576040517f08c379a0000000000000000000000000000000000000000000000000000000008152600401611d1b9061426a565b60405180910390fd5b600073ffffffffffffffffffffffffffffffffffffffff168173ffffffffffffffffffffffffffffffffffffffff161415611d94576040517f08c379a0000000000000000000000000000000000000000000000000000000008152600401611d8b90614810565b60405180910390fd5b611d9d81612499565b50565b60007f01ffc9a7000000000000000000000000000000000000000000000000000000007bffffffffffffffffffffffffffffffffffffffffffffffffffffffff1916827bffffffffffffffffffffffffffffffffffffffffffffffffffffffff1916149050919050565b600033905090565b8060029080519060200190611e28929190613254565b5050565b606060028054611e3b906142b9565b80601f0160208091040260200160405190810160405280929190818152602001828054611e67906142b9565b8015611eb45780601f10611e8957610100808354040283529160200191611eb4565b820191906000526020600020905b815481529060010190602001808311611e9757829003601f168201915b50505050509050919050565b600081600001549050919050565b600073ffffffffffffffffffffffffffffffffffffffff168473ffffffffffffffffffffffffffffffffffffffff161415611f3e576040517f08c379a0000000000000000000000000000000000000000000000000000000008152600401611f35906148a2565b60405180910390fd5b8151835114611f82576040517f08c379a0000000000000000000000000000000000000000000000000000000008152600401611f7990614934565b60405180910390fd5b6000611f8c611e0a565b9050611f9d81600087878787612d82565b60005b845181101561205657838181518110611fbc57611fbb614498565b5b6020026020010151600080878481518110611fda57611fd9614498565b5b6020026020010151815260200190815260200160002060008873ffffffffffffffffffffffffffffffffffffffff1673ffffffffffffffffffffffffffffffffffffffff168152602001908152602001600020600082825461203c9190614442565b92505081905550808061204e906144c7565b915050611fa0565b508473ffffffffffffffffffffffffffffffffffffffff16600073ffffffffffffffffffffffffffffffffffffffff168273ffffffffffffffffffffffffffffffffffffffff167f4a39dc06d4c0dbc64b70af90fd698a233a518aa5d07e595d983b8c0526c8f7fb87876040516120ce929190614954565b60405180910390a46120e581600087878787612d8a565b5050505050565b8151835114612130576040517f08c379a000000000000000000000000000000000000000000000000000000000815260040161212790614934565b60405180910390fd5b600073ffffffffffffffffffffffffffffffffffffffff168473ffffffffffffffffffffffffffffffffffffffff1614156121a0576040517f08c379a0000000000000000000000000000000000000000000000000000000008152600401612197906149fd565b60405180910390fd5b60006121aa611e0a565b90506121ba818787878787612d82565b60005b845181101561236b5760008582815181106121db576121da614498565b5b6020026020010151905060008583815181106121fa576121f9614498565b5b60200260200101519050600080600084815260200190815260200160002060008b73ffffffffffffffffffffffffffffffffffffffff1673ffffffffffffffffffffffffffffffffffffffff1681526020019081526020016000205490508181101561229b576040517f08c379a000000000000000000000000000000000000000000000000000000000815260040161229290614a8f565b60405180910390fd5b81810360008085815260200190815260200160002060008c73ffffffffffffffffffffffffffffffffffffffff1673ffffffffffffffffffffffffffffffffffffffff168152602001908152602001600020819055508160008085815260200190815260200160002060008b73ffffffffffffffffffffffffffffffffffffffff1673ffffffffffffffffffffffffffffffffffffffff16815260200190815260200160002060008282546123509190614442565b9250508190555050505080612364906144c7565b90506121bd565b508473ffffffffffffffffffffffffffffffffffffffff168673ffffffffffffffffffffffffffffffffffffffff168273ffffffffffffffffffffffffffffffffffffffff167f4a39dc06d4c0dbc64b70af90fd698a233a518aa5d07e595d983b8c0526c8f7fb87876040516123e2929190614954565b60405180910390a46123f8818787878787612d8a565b505050505050565b612496816040516024016124149190613708565b6040516020818303038152906040527f41304fac000000000000000000000000000000000000000000000000000000007bffffffffffffffffffffffffffffffffffffffffffffffffffffffff19166020820180517bffffffffffffffffffffffffffffffffffffffffffffffffffffffff8381831617835250505050612f62565b50565b6000600360009054906101000a900473ffffffffffffffffffffffffffffffffffffffff16905081600360006101000a81548173ffffffffffffffffffffffffffffffffffffffff021916908373ffffffffffffffffffffffffffffffffffffffff1602179055508173ffffffffffffffffffffffffffffffffffffffff168173ffffffffffffffffffffffffffffffffffffffff167f8be0079c531659141344cd1fd0a4f28419497f9722a3daafe3b4186f6b6457e060405160405180910390a35050565b6001816000016000828254019250508190555050565b600073ffffffffffffffffffffffffffffffffffffffff168473ffffffffffffffffffffffffffffffffffffffff1614156125e5576040517f08c379a00000000000000000000000000000000000000000000000000000000081526004016125dc906149fd565b60405180910390fd5b60006125ef611e0a565b905061260f81878761260088612f8b565b61260988612f8b565b87612d82565b600080600086815260200190815260200160002060008873ffffffffffffffffffffffffffffffffffffffff1673ffffffffffffffffffffffffffffffffffffffff168152602001908152602001600020549050838110156126a6576040517f08c379a000000000000000000000000000000000000000000000000000000000815260040161269d90614a8f565b60405180910390fd5b83810360008087815260200190815260200160002060008973ffffffffffffffffffffffffffffffffffffffff1673ffffffffffffffffffffffffffffffffffffffff168152602001908152602001600020819055508360008087815260200190815260200160002060008873ffffffffffffffffffffffffffffffffffffffff1673ffffffffffffffffffffffffffffffffffffffff168152602001908152602001600020600082825461275b9190614442565b925050819055508573ffffffffffffffffffffffffffffffffffffffff168773ffffffffffffffffffffffffffffffffffffffff168373ffffffffffffffffffffffffffffffffffffffff167fc3d58168c5ae7397731d063d5bbf3d657854427343f4c083240f7aacaa2d0f6288886040516127d8929190614aaf565b60405180910390a46127ee828888888888613005565b50505050505050565b8173ffffffffffffffffffffffffffffffffffffffff168373ffffffffffffffffffffffffffffffffffffffff161415612866576040517f08c379a000000000000000000000000000000000000000000000000000000000815260040161285d90614b4a565b60405180910390fd5b80600160008573ffffffffffffffffffffffffffffffffffffffff1673ffffffffffffffffffffffffffffffffffffffff16815260200190815260200160002060008473ffffffffffffffffffffffffffffffffffffffff1673ffffffffffffffffffffffffffffffffffffffff16815260200190815260200160002060006101000a81548160ff0219169083151502179055508173ffffffffffffffffffffffffffffffffffffffff168373ffffffffffffffffffffffffffffffffffffffff167f17307eab39ab6107e8899845ad3d59bd9653f200f220920489ca2b5937696c318360405161295791906134a9565b60405180910390a3505050565b600073ffffffffffffffffffffffffffffffffffffffff168473ffffffffffffffffffffffffffffffffffffffff1614156129d4576040517f08c379a00000000000000000000000000000000000000000000000000000000081526004016129cb906148a2565b60405180910390fd5b60006129de611e0a565b90506129ff816000876129f088612f8b565b6129f988612f8b565b87612d82565b8260008086815260200190815260200160002060008773ffffffffffffffffffffffffffffffffffffffff1673ffffffffffffffffffffffffffffffffffffffff1681526020019081526020016000206000828254612a5e9190614442565b925050819055508473ffffffffffffffffffffffffffffffffffffffff16600073ffffffffffffffffffffffffffffffffffffffff168273ffffffffffffffffffffffffffffffffffffffff167fc3d58168c5ae7397731d063d5bbf3d657854427343f4c083240f7aacaa2d0f628787604051612adc929190614aaf565b60405180910390a4612af381600087878787613005565b5050505050565b80600660008481526020019081526020016000209080519060200190612b21929190613254565b505050565b60026004541415612b6c576040517f08c379a0000000000000000000000000000000000000000000000000000000008152600401612b63906146ec565b60405180910390fd5b6002600481905550612b7e600b61255f565b6000612b8a600b611ec0565b905060008311612bcf576040517f08c379a0000000000000000000000000000000000000000000000000000000008152600401612bc690614bb6565b60405180910390fd5b6040518060c001604052808281526020018581526020013373ffffffffffffffffffffffffffffffffffffffff1681526020013073ffffffffffffffffffffffffffffffffffffffff1681526020018481526020016000151581525060076000838152602001908152602001600020600082015181600001556020820151816001015560408201518160020160006101000a81548173ffffffffffffffffffffffffffffffffffffffff021916908373ffffffffffffffffffffffffffffffffffffffff16021790555060608201518160030160006101000a81548173ffffffffffffffffffffffffffffffffffffffff021916908373ffffffffffffffffffffffffffffffffffffffff1602179055506080820151816004015560a08201518160050160006101000a81548160ff021916908315150217905550905050612d18306001611a44565b612d343330868560405180602001604052806000815250611c07565b83817f4a29ff6f650682addfdf8030b3eeb4610ec651b42d8603f2527633347f9489c93330876000604051612d6c9493929190614bd6565b60405180910390a3506001600481905550505050565b505050505050565b612da98473ffffffffffffffffffffffffffffffffffffffff166131dd565b15612f5a578373ffffffffffffffffffffffffffffffffffffffff1663bc197c8187878686866040518663ffffffff1660e01b8152600401612def959493929190614c70565b6020604051808303816000875af1925050508015612e2b57506040513d601f19601f82011682018060405250810190612e289190614ced565b60015b612ed157612e37614d27565b806308c379a01415612e945750612e4c614d49565b80612e575750612e96565b806040517f08c379a0000000000000000000000000000000000000000000000000000000008152600401612e8b9190613708565b60405180910390fd5b505b6040517f08c379a0000000000000000000000000000000000000000000000000000000008152600401612ec890614e51565b60405180910390fd5b63bc197c8160e01b7bffffffffffffffffffffffffffffffffffffffffffffffffffffffff1916817bffffffffffffffffffffffffffffffffffffffffffffffffffffffff191614612f58576040517f08c379a0000000000000000000000000000000000000000000000000000000008152600401612f4f90614ee3565b60405180910390fd5b505b505050505050565b60008151905060006a636f6e736f6c652e6c6f679050602083016000808483855afa5050505050565b60606000600167ffffffffffffffff811115612faa57612fa96134df565b5b604051908082528060200260200182016040528015612fd85781602001602082028036833780820191505090505b5090508281600081518110612ff057612fef614498565b5b60200260200101818152505080915050919050565b6130248473ffffffffffffffffffffffffffffffffffffffff166131dd565b156131d5578373ffffffffffffffffffffffffffffffffffffffff1663f23a6e6187878686866040518663ffffffff1660e01b815260040161306a959493929190614f03565b6020604051808303816000875af19250505080156130a657506040513d601f19601f820116820180604052508101906130a39190614ced565b60015b61314c576130b2614d27565b806308c379a0141561310f57506130c7614d49565b806130d25750613111565b806040517f08c379a00000000000000000000000000000000000000000000000000000000081526004016131069190613708565b60405180910390fd5b505b6040517f08c379a000000000000000000000000000000000000000000000000000000000815260040161314390614e51565b60405180910390fd5b63f23a6e6160e01b7bffffffffffffffffffffffffffffffffffffffffffffffffffffffff1916817bffffffffffffffffffffffffffffffffffffffffffffffffffffffff1916146131d3576040517f08c379a00000000000000000000000000000000000000000000000000000000081526004016131ca90614ee3565b60405180910390fd5b505b505050505050565b600080823b905060008111915050919050565b6040518060c001604052806000815260200160008152602001600073ffffffffffffffffffffffffffffffffffffffff168152602001600073ffffffffffffffffffffffffffffffffffffffff168152602001600081526020016000151581525090565b828054613260906142b9565b90600052602060002090601f01602090048101928261328257600085556132c9565b82601f1061329b57805160ff19168380011785556132c9565b828001600101855582156132c9579182015b828111156132c85782518255916020019190600101906132ad565b5b5090506132d691906132da565b5090565b5b808211156132f35760008160009055506001016132db565b5090565b6000604051905090565b600080fd5b600080fd5b600073ffffffffffffffffffffffffffffffffffffffff82169050919050565b60006133368261330b565b9050919050565b6133468161332b565b811461335157600080fd5b50565b6000813590506133638161333d565b92915050565b6000819050919050565b61337c81613369565b811461338757600080fd5b50565b60008135905061339981613373565b92915050565b600080604083850312156133b6576133b5613301565b5b60006133c485828601613354565b92505060206133d58582860161338a565b9150509250929050565b6133e881613369565b82525050565b600060208201905061340360008301846133df565b92915050565b60007fffffffff0000000000000000000000000000000000000000000000000000000082169050919050565b61343e81613409565b811461344957600080fd5b50565b60008135905061345b81613435565b92915050565b60006020828403121561347757613476613301565b5b60006134858482850161344c565b91505092915050565b60008115159050919050565b6134a38161348e565b82525050565b60006020820190506134be600083018461349a565b92915050565b600080fd5b600080fd5b6000601f19601f8301169050919050565b7f4e487b7100000000000000000000000000000000000000000000000000000000600052604160045260246000fd5b613517826134ce565b810181811067ffffffffffffffff82111715613536576135356134df565b5b80604052505050565b60006135496132f7565b9050613555828261350e565b919050565b600067ffffffffffffffff821115613575576135746134df565b5b61357e826134ce565b9050602081019050919050565b82818337600083830152505050565b60006135ad6135a88461355a565b61353f565b9050828152602081018484840111156135c9576135c86134c9565b5b6135d484828561358b565b509392505050565b600082601f8301126135f1576135f06134c4565b5b813561360184826020860161359a565b91505092915050565b6000602082840312156136205761361f613301565b5b600082013567ffffffffffffffff81111561363e5761363d613306565b5b61364a848285016135dc565b91505092915050565b60006020828403121561366957613668613301565b5b60006136778482850161338a565b91505092915050565b600081519050919050565b600082825260208201905092915050565b60005b838110156136ba57808201518184015260208101905061369f565b838111156136c9576000848401525b50505050565b60006136da82613680565b6136e4818561368b565b93506136f481856020860161369c565b6136fd816134ce565b840191505092915050565b6000602082019050818103600083015261372281846136cf565b905092915050565b600081519050919050565b600082825260208201905092915050565b6000819050602082019050919050565b61375f81613369565b82525050565b60006137708261330b565b9050919050565b61378081613765565b82525050565b61378f8161348e565b82525050565b60c0820160008201516137ab6000850182613756565b5060208201516137be6020850182613756565b5060408201516137d16040850182613777565b5060608201516137e46060850182613777565b5060808201516137f76080850182613756565b5060a082015161380a60a0850182613786565b50505050565b600061381c8383613795565b60c08301905092915050565b6000602082019050919050565b60006138408261372a565b61384a8185613735565b935061385583613746565b8060005b8381101561388657815161386d8882613810565b975061387883613828565b925050600181019050613859565b5085935050505092915050565b600060208201905081810360008301526138ad8184613835565b905092915050565b600067ffffffffffffffff8211156138d0576138cf6134df565b5b602082029050602081019050919050565b600080fd5b60006138f96138f4846138b5565b61353f565b9050808382526020820190506020840283018581111561391c5761391b6138e1565b5b835b818110156139455780613931888261338a565b84526020840193505060208101905061391e565b5050509392505050565b600082601f830112613964576139636134c4565b5b81356139748482602086016138e6565b91505092915050565b600067ffffffffffffffff821115613998576139976134df565b5b6139a1826134ce565b9050602081019050919050565b60006139c16139bc8461397d565b61353f565b9050828152602081018484840111156139dd576139dc6134c9565b5b6139e884828561358b565b509392505050565b600082601f830112613a0557613a046134c4565b5b8135613a158482602086016139ae565b91505092915050565b60008060008060808587031215613a3857613a37613301565b5b6000613a4687828801613354565b945050602085013567ffffffffffffffff811115613a6757613a66613306565b5b613a738782880161394f565b935050604085013567ffffffffffffffff811115613a9457613a93613306565b5b613aa08782880161394f565b925050606085013567ffffffffffffffff811115613ac157613ac0613306565b5b613acd878288016139f0565b91505092959194509250565b600080600080600060a08688031215613af557613af4613301565b5b6000613b0388828901613354565b9550506020613b1488828901613354565b945050604086013567ffffffffffffffff811115613b3557613b34613306565b5b613b418882890161394f565b935050606086013567ffffffffffffffff811115613b6257613b61613306565b5b613b6e8882890161394f565b925050608086013567ffffffffffffffff811115613b8f57613b8e613306565b5b613b9b888289016139f0565b9150509295509295909350565b600067ffffffffffffffff821115613bc357613bc26134df565b5b602082029050602081019050919050565b6000613be7613be284613ba8565b61353f565b90508083825260208201905060208402830185811115613c0a57613c096138e1565b5b835b81811015613c335780613c1f8882613354565b845260208401935050602081019050613c0c565b5050509392505050565b600082601f830112613c5257613c516134c4565b5b8135613c62848260208601613bd4565b91505092915050565b60008060408385031215613c8257613c81613301565b5b600083013567ffffffffffffffff811115613ca057613c9f613306565b5b613cac85828601613c3d565b925050602083013567ffffffffffffffff811115613ccd57613ccc613306565b5b613cd98582860161394f565b9150509250929050565b600081519050919050565b600082825260208201905092915050565b6000819050602082019050919050565b6000613d1b8383613756565b60208301905092915050565b6000602082019050919050565b6000613d3f82613ce3565b613d498185613cee565b9350613d5483613cff565b8060005b83811015613d85578151613d6c8882613d0f565b9750613d7783613d27565b925050600181019050613d58565b5085935050505092915050565b60006020820190508181036000830152613dac8184613d34565b905092915050565b600060208284031215613dca57613dc9613301565b5b6000613dd884828501613354565b91505092915050565b613dea8161332b565b82525050565b6000602082019050613e056000830184613de1565b92915050565b60008060408385031215613e2257613e21613301565b5b6000613e308582860161338a565b9250506020613e418582860161338a565b9150509250929050565b613e548161348e565b8114613e5f57600080fd5b50565b600081359050613e7181613e4b565b92915050565b60008060408385031215613e8e57613e8d613301565b5b6000613e9c85828601613354565b9250506020613ead85828601613e62565b9150509250929050565b600080600060608486031215613ed057613ecf613301565b5b600084013567ffffffffffffffff811115613eee57613eed613306565b5b613efa868287016135dc565b9350506020613f0b8682870161338a565b9250506040613f1c8682870161338a565b9150509250925092565b613f2f81613765565b82525050565b600060c082019050613f4a60008301896133df565b613f5760208301886133df565b613f646040830187613f26565b613f716060830186613f26565b613f7e60808301856133df565b613f8b60a083018461349a565b979650505050505050565b60008060408385031215613fad57613fac613301565b5b6000613fbb85828601613354565b9250506020613fcc85828601613354565b9150509250929050565b600080fd5b60008083601f840112613ff157613ff06134c4565b5b8235905067ffffffffffffffff81111561400e5761400d613fd6565b5b60208301915083600182028301111561402a576140296138e1565b5b9250929050565b60008060008060008060a0878903121561404e5761404d613301565b5b600061405c89828a01613354565b965050602061406d89828a01613354565b955050604061407e89828a0161338a565b945050606061408f89828a0161338a565b935050608087013567ffffffffffffffff8111156140b0576140af613306565b5b6140bc89828a01613fdb565b92509250509295509295509295565b6140d481613409565b82525050565b60006020820190506140ef60008301846140cb565b92915050565b600080600080600060a0868803121561411157614110613301565b5b600061411f88828901613354565b955050602061413088828901613354565b94505060406141418882890161338a565b93505060606141528882890161338a565b925050608086013567ffffffffffffffff81111561417357614172613306565b5b61417f888289016139f0565b9150509295509295909350565b7f455243313135353a2062616c616e636520717565727920666f7220746865207a60008201527f65726f2061646472657373000000000000000000000000000000000000000000602082015250565b60006141e8602b8361368b565b91506141f38261418c565b604082019050919050565b60006020820190508181036000830152614217816141db565b9050919050565b7f4f776e61626c653a2063616c6c6572206973206e6f7420746865206f776e6572600082015250565b600061425460208361368b565b915061425f8261421e565b602082019050919050565b6000602082019050818103600083015261428381614247565b9050919050565b7f4e487b7100000000000000000000000000000000000000000000000000000000600052602260045260246000fd5b600060028204905060018216806142d157607f821691505b602082108114156142e5576142e461428a565b5b50919050565b600081905092915050565b60008190508160005260206000209050919050565b60008154614318816142b9565b61432281866142eb565b9450600182166000811461433d576001811461434e57614381565b60ff19831686528186019350614381565b614357856142f6565b60005b838110156143795781548189015260018201915060208101905061435a565b838801955050505b50505092915050565b600061439582613680565b61439f81856142eb565b93506143af81856020860161369c565b80840191505092915050565b60006143c7828561430b565b91506143d3828461438a565b91508190509392505050565b7f4e487b7100000000000000000000000000000000000000000000000000000000600052601160045260246000fd5b600061441982613369565b915061442483613369565b925082821015614437576144366143df565b5b828203905092915050565b600061444d82613369565b915061445883613369565b9250827fffffffffffffffffffffffffffffffffffffffffffffffffffffffffffffffff0382111561448d5761448c6143df565b5b828201905092915050565b7f4e487b7100000000000000000000000000000000000000000000000000000000600052603260045260246000fd5b60006144d282613369565b91507fffffffffffffffffffffffffffffffffffffffffffffffffffffffffffffffff821415614505576145046143df565b5b600182019050919050565b7f455243313135353a207472616e736665722063616c6c6572206973206e6f742060008201527f6f776e6572206e6f7220617070726f7665640000000000000000000000000000602082015250565b600061456c60328361368b565b915061457782614510565b604082019050919050565b6000602082019050818103600083015261459b8161455f565b9050919050565b7f7472616e73666572207265717569726564206661696c00000000000000000000600082015250565b60006145d860168361368b565b91506145e3826145a2565b602082019050919050565b60006020820190508181036000830152614607816145cb565b9050919050565b7f455243313135353a206163636f756e747320616e6420696473206c656e67746860008201527f206d69736d617463680000000000000000000000000000000000000000000000602082015250565b600061466a60298361368b565b91506146758261460e565b604082019050919050565b600060208201905081810360008301526146998161465d565b9050919050565b7f5265656e7472616e637947756172643a207265656e7472616e742063616c6c00600082015250565b60006146d6601f8361368b565b91506146e1826146a0565b602082019050919050565b60006020820190508181036000830152614705816146c9565b9050919050565b7f455243313135353a2063616c6c6572206973206e6f7420746f6b656e206f776e60008201527f6572206e6f7220617070726f7665640000000000000000000000000000000000602082015250565b6000614768602f8361368b565b91506147738261470c565b604082019050919050565b600060208201905081810360008301526147978161475b565b9050919050565b7f4f776e61626c653a206e6577206f776e657220697320746865207a65726f206160008201527f6464726573730000000000000000000000000000000000000000000000000000602082015250565b60006147fa60268361368b565b91506148058261479e565b604082019050919050565b60006020820190508181036000830152614829816147ed565b9050919050565b7f455243313135353a206d696e7420746f20746865207a65726f2061646472657360008201527f7300000000000000000000000000000000000000000000000000000000000000602082015250565b600061488c60218361368b565b915061489782614830565b604082019050919050565b600060208201905081810360008301526148bb8161487f565b9050919050565b7f455243313135353a2069647320616e6420616d6f756e7473206c656e6774682060008201527f6d69736d61746368000000000000000000000000000000000000000000000000602082015250565b600061491e60288361368b565b9150614929826148c2565b604082019050919050565b6000602082019050818103600083015261494d81614911565b9050919050565b6000604082019050818103600083015261496e8185613d34565b905081810360208301526149828184613d34565b90509392505050565b7f455243313135353a207472616e7366657220746f20746865207a65726f20616460008201527f6472657373000000000000000000000000000000000000000000000000000000602082015250565b60006149e760258361368b565b91506149f28261498b565b604082019050919050565b60006020820190508181036000830152614a16816149da565b9050919050565b7f455243313135353a20696e73756666696369656e742062616c616e636520666f60008201527f72207472616e7366657200000000000000000000000000000000000000000000602082015250565b6000614a79602a8361368b565b9150614a8482614a1d565b604082019050919050565b60006020820190508181036000830152614aa881614a6c565b9050919050565b6000604082019050614ac460008301856133df565b614ad160208301846133df565b9392505050565b7f455243313135353a2073657474696e6720617070726f76616c2073746174757360008201527f20666f722073656c660000000000000000000000000000000000000000000000602082015250565b6000614b3460298361368b565b9150614b3f82614ad8565b604082019050919050565b60006020820190508181036000830152614b6381614b27565b9050919050565b7f5072696365206d757374206265206174206c6561737420312077656900000000600082015250565b6000614ba0601c8361368b565b9150614bab82614b6a565b602082019050919050565b60006020820190508181036000830152614bcf81614b93565b9050919050565b6000608082019050614beb6000830187613de1565b614bf86020830186613de1565b614c0560408301856133df565b614c12606083018461349a565b95945050505050565b600081519050919050565b600082825260208201905092915050565b6000614c4282614c1b565b614c4c8185614c26565b9350614c5c81856020860161369c565b614c65816134ce565b840191505092915050565b600060a082019050614c856000830188613de1565b614c926020830187613de1565b8181036040830152614ca48186613d34565b90508181036060830152614cb88185613d34565b90508181036080830152614ccc8184614c37565b90509695505050505050565b600081519050614ce781613435565b92915050565b600060208284031215614d0357614d02613301565b5b6000614d1184828501614cd8565b91505092915050565b60008160e01c9050919050565b600060033d1115614d465760046000803e614d43600051614d1a565b90505b90565b600060443d1015614d5957614ddc565b614d616132f7565b60043d036004823e80513d602482011167ffffffffffffffff82111715614d89575050614ddc565b808201805167ffffffffffffffff811115614da75750505050614ddc565b80602083010160043d038501811115614dc4575050505050614ddc565b614dd38260200185018661350e565b82955050505050505b90565b7f455243313135353a207472616e7366657220746f206e6f6e204552433131353560008201527f526563656976657220696d706c656d656e746572000000000000000000000000602082015250565b6000614e3b60348361368b565b9150614e4682614ddf565b604082019050919050565b60006020820190508181036000830152614e6a81614e2e565b9050919050565b7f455243313135353a204552433131353552656365697665722072656a6563746560008201527f6420746f6b656e73000000000000000000000000000000000000000000000000602082015250565b6000614ecd60288361368b565b9150614ed882614e71565b604082019050919050565b60006020820190508181036000830152614efc81614ec0565b9050919050565b600060a082019050614f186000830188613de1565b614f256020830187613de1565b614f3260408301866133df565b614f3f60608301856133df565b8181036080830152614f518184614c37565b9050969550505050505056fea2646970667358221220298765c03e10181db57a27c8569d58a1e4d4d1b8ee840c143c0c2735bf44aaa364736f6c634300080a0033",
  "linkReferences": {},
  "deployedLinkReferences": {}
}